:1000000000308A001928000024308400831300087F
:10001000031918280130F800F701F70B0D28F80B29
:100020000C284A30F700F70B13281628800B0A28F3
:10003000080003081F39830083168E1507308312CA
:100040009F00831383168601FF308312860064307D
:10005000A40004200730A100A2012208073C031CD1
:100060006B280130F7002208F80003193B28031021
:10007000F70DF80B3728770886040130F7002108C0
:10008000F800031947280310F70DF80B43287708E9
:1000900086046430A40004200130F7002208F80030
:1000A000031956280310F70DF80B52287708FF3A6A
:1000B00086050130F7002108F800031963280310B2
:1000C000F70DF80B5F287708FF3A86050230A1028A
:1000D0000230A2072D280830A300A308031999288D
:1000E00023080139031990280130F7002308F8008C
:1000F00003197E280310F70DF80B7A287708860479
:100100006430A40004200130F7002308F80003192C
:100110008D280310F70DF80B89287708FF3A86051C
:10012000AA3086006430A400042055308600A30362
:0E0130006D286430A400042083162428630088
:02400E00513F20
:00000001FF
;PIC16F628A
;CRC=F3F7  CREATED="20-oct.-21 14:57"
