:1000000000308A0019280000233084008313000880
:10001000031918280130F800F701F70B0D28F80B29
:100020000C284A30F700F70B13281628800B0A28F3
:10003000080003081F39830083168E1507308312CA
:100040009F008313A1012108043C031C3F28831651
:100050000610831206140230A200FA30A300042016
:10006000A20B2D2883160610831206100230A20060
:10007000FA30A3000420A20B3828A10A2328630029
:02400E00513F20
:00000001FF
;PIC16F628A
;CRC=8C2B  CREATED="20-oct.-21 01:20"
